:0600000002006B02225415
:03000B000225804B
:030013000222A71F
:01001B0032B2
:030023000221BCFB
:03002B000227FEAB
:01003300329A
:03003B000222FAA4
:0300430002217D1A
:01004B003282
:030053000222087E
:01005B003272
:030063000227FC75
:0300660002234E24
:02006900E4733E
:0D006B00758143122D1AE5826003020066C4
:10007800796CE94400601B7A019030C078AC75A0B7
:1000880001E493F2A308B8000205A0D9F4DAF275E6
:02009800A0FFC7
:06009A00E478FFF6D8FD3A
:1000A0007800E84400600A799475A000E4F309D868
:1000B000FC7818E84401600C7902900094E4F0A305
:0400C000D8FCD9FA95
:0200C400C20078
:0E00C6007808E4F608F608F608F6780C7600DE
:0200D400C20464
:0200D600C20561
:0300D800020066BD
:1000DC00020DD2AF82AE83ADF0FC900098EFF0EE43
:1000EC00A3F0EDA3F0ECA3F0900094E0FCA3E0FDF2
:1000FC00A3E0FEA3E0FF900098E0F8A3E0F9A3E0F2
:10010C00FAA3E0FBE8C39CFCE99DFDEA9EFEEB9F95
:10011C00FFC3740F9CE49DE49EE49F400122900178
:10012C00ACE0FF6013BF42028018BF43028025BFC2
:10013C0044030202F202035F12100EE5829001AC3E
:10014C00F02275E200C2AF900001E4F5F012263DFA
:10015C00123800229001ACE4F012100EAF82C007EE
:10016C00120F00900F00121EC212100EAE82C006AB
:10017C00120F00900F00121EC2D006D007EF75F0C0
:10018C000CA4FCADF024B4F582ED3401F583EEF053
:10019C00EF75F00AA4FF2433FB900166EEF08B821E
:1001AC00C007C005C00412235D12100EAE82D0042D
:1001BC00D0058E82C006C005C004120F00900F003F
:1001CC00121EC2D004D005D006D007EC24B4FCED2E
:1001DC003401FD8C828D83A3EEF074342FFB9001DF
:1001EC0066EEF08B82C007C005C00412235D1210AE
:1001FC000EAE82D004D0058E82C006C005C004129B
:10020C000F00900F00121EC2D004D005D006D007EC
:10021C008C828D83A3A3EEF074352FFB900166EED8
:10022C00F08B82C007C005C00412235D12100EAE05
:10023C0082D004D0058E82C006C005C004120F0007
:10024C00900F00121EC2D004D005D006D0078C82AD
:10025C008D83A3A3A3EEF074362FFB900166EEF012
:10026C008B82C007C005C00412235D12100EAE8233
:10027C00D004D0058E82C006C005C004120F0090B9
:10028C000F00121EC2D004D005D006D0078C828D70
:10029C0083A3A3A3A3EEF074372FFB900166EEF0BB
:1002AC008B82C007C005C00412235D12100EAE82F3
:1002BC00D004D0058E82C006C005C004120F009079
:1002CC000F00121EC2D004D005D006D0078C828D30
:1002DC0083A3A3A3A3A3EEF074382FFF900166EEC3
:1002EC00F08F8202235D9001ACE4F0758223120F33
:1002FC00007F00EF24FB40528F067D01ED24F94076
:10030C00468E04EC75F00AA42432FC8D03EB2CF51C
:10031C0082C007C006C005122393AC828C017A0000
:10032C007B007C00900137E9F0EAA3F0EBA3F0EC42
:10033C00A3F0900F00121E9575822F120F00D0059E
:10034C00D006D0070D80B50F80A9758223120F003F
:09035C00020ED79001ACE4F0227E
:100366001200DC1203C9120B6D020AD7122600AC6A
:1003760082AD83AEF0FFC007C006C005C004120BF5
:100386009FD004D005D006D0078C828D838EF0EFE7
:10039600C007C006C005C0041204B8D004D005D0FA
:0D03A60006D0078C828D838EF0EF0200DF01
:1003B4007EA07F007D007C004305128E828F838D9A
:1003C400F0EC02294C1227299001677401F0758220
:1003D40022022404E5829000B9F09000B7E0FF9077
:1003E40000B9E0FE9000B8E0FD7C00BC0600504679
:1003F4008C027B00C007C006C005C004C002C00355
:1004040090000312275EAA82AB8315811581D00464
:10041400D005D006D007EA24A0FAEB3400FB8A8288
:100424008B83EFF08A828B83A3EEF08A828B83A383
:10043400A3EDF00C80B522E5829000BAF0E0FFBF96
:100444005500501E9000B2EF75F003A4F08F06EE35
:1004540075F003A49000B3D394FFF4F09000B4E4D7
:10046400F022BFAA0050268F06EE24AB9000BAF00B
:10047400E0FE75F003A49000B2D394FFF4F0900072
:10048400B3E4F09000B4EE75F003A4F022EF245628
:100494009000BAF09000B2E4F09000BAE0FF90004F
:1004A400B375F003A4F0EF75F003A49000B4D394F3
:1004B400FFF4F022AF82AE83ADF0FC9000BBEFF00E
:1004C400EEA3F0EDA3F0ECA3F090009CE0FCA3E01D
:1004D400FDA3E0FEA3E0FF9000BBE0F8A3E0F9A3D6
:1004E400E0FAA3E0FBE8C39CF510E99DF511EA9E50
:1004F400F512EB9FF5139001B3E0FF7E007D007CC5
:1005040000C3EF9510EE9511ED9512EC9513400193
:100514002290009CE8F0E9A3F0EAA3F0EBA3F090AA
:1005240001B2E0FF24F9500122EF2F2F900534731C
:1005340002054902056F0208D102061C02062702C1
:1005440007790207859000B6E4F09000B5F09000BA
:10055400B4F09000B3F09000B2F09000B7F09000C7
:10056400B8F07582001203D80203B49000B5E4F029
:100574009000B5E0FE7F007406C0E0E4C0E08F8226
:100584008E83122C58AE82158115819000B6E02E10
:10059400F58212043B9000B5E0FF7E00C007C00660
:1005A40090000312275EAE82AF8315811581EE247D
:1005B400A0FEEF3400FF9000BFEEF0EFA3F0900038
:1005C400B2E08E828F83F09000BFE0FEA3E0FF7460
:1005D400012EFCE43FFD9000B3E0FB8C828D83F0A0
:1005E40074022EFEE43FFF9000B4E0FD8E828F8300
:1005F400F09000B5E02401F0E0FFBF0600500302D4
:1006040005741203B49000B6E0FF04F0BFFF02804B
:1006140001229000B6E4F0229000B6E4F09001B21A
:100624007404F09000B6E0F582122B16AC82AD8310
:10063400AEF0FFE4C0E0C0E07480C0E07443C0E00A
:100644008C828D838EF0EF122A37AC82AD83AEF0AC
:10065400FFE58124FCF5819001AFE0F582C007C07D
:1006640006C005C004122B16A882A983AAF0FBD0E9
:1006740004D005D006D007C007C006C005C004C01A
:1006840000C001C002C0038C828D838EF0EF122063
:10069400DAA882A983AAF0FBE58124FCF58188828B
:1006A40089838AF0EB122B218582109000B2E51029
:1006B400F09001B0E0F582122B16A882A983AAF06B
:1006C400FBD004D005D006D007C007C006C005C0C3
:1006D40004C000C001C002C0038C828D838EF0EF81
:1006E4001220DAA882A983AAF0FBE58124FCF58113
:1006F400888289838AF0EB122B218582149000B3BF
:10070400E514F09001B1E0F582122B16A882A983BA
:10071400AAF0FBD004D005D006D007C000C001C0A9
:1007240002C0038C828D838EF0EF1220DAAC82AD8E
:1007340083AEF0FFE58124FCF5818C828D838EF0FD
:10074400EF122B21AF829000B4EFF09000B7E514C4
:10075400F09000B8EFF08510821203D81203B49021
:1007640000B6E02403F0E0FFBFFF02800122900105
:10077400B27405F0229000B674FFF09001B27406D2
:10078400F09000B6E0F582122B16AC82AD83AEF089
:10079400FFE4C0E0C0E07480C0E07443C0E08C8239
:1007A4008D838EF0EF122A37AC82AD83AEF0FFE575
:1007B4008124FCF5819001AFE0F582C007C006C03A
:1007C40005C004122B16A882A983AAF0FBD004D07A
:1007D40005D006D007C007C006C005C004C000C0CD
:1007E40001C002C0038C828D838EF0EF1220DAA840
:1007F40082A983AAF0FBE58124FCF58188828983A0
:100804008AF0EB122B218582149000B2E514F0904B
:1008140001B0E0F582122B16A882A983AAF0FBD0BE
:1008240004D005D006D007C007C006C005C004C068
:1008340000C001C002C0038C828D838EF0EF1220B1
:10084400DAA882A983AAF0FBE58124FCF5818882D9
:1008540089838AF0EB122B218582109000B3E51076
:10086400F09001B1E0F582122B16A882A983AAF0B8
:10087400FBD004D005D006D007C000C001C002C020
:10088400038C828D838EF0EF1220DAAC82AD83AEBE
:10089400F0FFE58124FCF5818C828D838EF0EF12CC
:1008A4002B21AF829000B4EFF09000B7E510F090E8
:1008B40000B8EFF08514821203D81203B49000B686
:0E08C400E0FF24FDF0E070059001B2E4F022A8
:1008D200229001B27401F09001B37419F022902EAB
:1008E2008775F0801212FF90000AE4F5F012263D9F
:1008F2001212C70208D3E5829000C1F09001B274CF
:1009020003F09000C1E075F00CA424B4FE7401352C
:10091200F0FF8E828F83A3A3A3E09001AFF08E82BB
:100922008F83A3A3A3A3E09001B0F08E828F83A351
:10093200A3A3A3A3E09001B1F09001B37402F0224B
:10094200E5829000C2F0E075F00CA424B4F5827444
:100952000135F0F583E0FF60058F8212110F9000E0
:100962000AE4F5F012263D9000C2E075F00CA424D2
:10097200B4FE740135F0FF8E828F83A3E0FF600521
:100982008F8212110F90000AE4F5F012263D9000BA
:10099200C2E075F00CA424B4FE740135F0FF8E821F
:1009A2008F83A3A3E0FF60058F8212110F90000ACC
:1009B200E4F5F012263D1212C790000AE4F5F002A7
:1009C200263DE5829000C3F0E0FF75F00CA4FDAE79
:1009D200F024B4FBEE3401FCEF75F00AA4FF2433DB
:1009E200F582C007C006C005C004C003122393AA43
:1009F20082D003D004D005D006D0078B828C83EA44
:100A0200F0ED24B4FDEE3401FE74012DFBE43EFC56
:100A120074342FF582C007C006C005C004C003129B
:100A22002393AA82D003D004D005D006D0078B82AC
:100A32008C83EAF074022DFBE43EFC74352FF582C0
:100A4200C007C006C005C004C003122393AA82D007
:100A520003D004D005D006D0078B828C83EAF074D1
:100A6200032DFBE43EFC74362FF582C007C006C09E
:100A720005C004C003122393AA82D003D004D00578
:100A8200D006D0078B828C83EAF074042DFBE43EFF
:100A9200FC74372FF582C007C006C005C004C0032E
:100AA200122393AA82D003D004D005D006D0078B9C
:100AB200828C83EAF074052DFDE43EFE74382FF536
:100AC20082C006C005122393AF82D005D0068D8264
:100AD2008E83EFF0227582001209C4758201120919
:100AE200C47582021209C47582031209C475820494
:100AF2001209C49001B27403F09001AF74FFF09038
:0E0B020001B0F09001B1F09001B37405F02243
:100B100053930C9000B7E4F09000B8F07582FF1288
:100B200003D81203B49007D0E4F5F012263D7F00FD
:100B3000BF0A0050377E00BE0500502DE5C354F8B3
:100B4000FD8E040C0CEC4DF5C3E5C330E7FBEE75F0
:100B5000F002A424D3F582740035F0F583ACC4AD63
:100B6000C5ECF0EDA3F00E80CE0F80C422120B1066
:100B70007F00BF05005027EF75F003A4FDAEF02401
:100B8000C4F582EE3400F583E4F0ED24C4FDEE34C8
:100B900000FE8D828E83A3E4F0A3F00F80D422AFF9
:100BA00082AE83ADF0FC9000E1EFF0EEA3F0EDA398
:100BB000F0ECA3F09000DDE0FCA3E0FDA3E0FEA3D9
:100BC000E0FF9000E1E0F8A3E0F9A3E0FAA3E0FB86
:100BD000E8C39CFCE99DFDEA9EFEEB9FFFC3EC94FD
:100BE0000AED9400EE9400EF94005001229000DD95
:100BF000E8F0E9A3F0EAA3F0EBA3F07F00BF050063
:100C0000400122E5C354F8FE8F050D0DED4EF5C3EE
:100C1000E5C330E7FBADC4AEC5EF75F002A424D345
:100C2000F582740035F0F583E0FBA3E0FCEDC39B97
:100C3000F9EE9CFAC3E49974808AF063F08095F031
:100C40005009EDC39BF9EE9CFA800EEDC39BFDEEBF
:100C50009CFEC3E49DF9E49EFA9000E5C374E89914
:100C600074838AF063F08095F0E433F0EF75F0035D
:100C7000A4FDAEF024C4FBEE3400FC8B828C83E038
:100C8000FA600EBA01028046BA0203020DC1020DDB
:100C9000CD9000E5E07003020DCDC0078B828C8300
:100CA0007401F0ED24C4F9EE3400FA09B900010A28
:100CB00089828A83E0F8A3E0FF740A28F8E43FFF02
:100CC00089828A83E8F0EFA3F0D007020DCD90006F
:100CD000E5E07079ED24C4F9EE3400FA89828A8364
:100CE000A3E4F0A3F089828A83F0EF75F00CA424CA
:100CF000B4F515740135F0F516851582851683A3B4
:100D0000A3A3A3A3A3E0F8A3E0FAC007C002C00016
:100D1000120D158007C000C0028F8222D000D002C1
:100D2000D007740A2515F582E43516F583E0F9A39A
:100D3000E0FAC007C002C001120D3D8007C001C02B
:100D4000028F8222D001D002D007020DCDC007ED64
:100D500024C4FDEE3400FE74012DF9E43EFA8982CC
:100D60008A83E0F8A3E0FF740A28F8E43FFF898251
:100D70008A83E8F0EFA3F0C374F49874019FD0075E
:100D8000504B89828A83E4F0A3F08D828E837402B3
:100D9000F0EF75F00CA424B4FD740135F0FE740876
:100DA0002DF582E43EF583E0FDA3E0FEC007C0061A
:100DB000C0058D828E83120069D005D006D00780D1
:100DC0000C9000E5E070068B828C83E4F00F020B40
:010DD000FD25
:100DD2001218E712191112190075DD0075D300758A
:100DE200D50075D700229001F7E4F0C200227F00FF
:100DF200C3E5DB9407920140067D077E008004ADC7
:100E0200DB7E008F037C00C3EB9DEC64808EF0637D
:100E1200F08095F05017EF24F0FDE43401FE8F824C
:100E2200758300E0FC8D828E83F00F80C3227F00E9
:100E32008F057E00C3ED9407EE940050188F057E57
:100E420000EF24F0F582E43401F583E0FC8D828E1C
:100E520083F00F80DB90000722900002E0FF9001F8
:100E6200F9F0E020E0339001F0E0FCA3E0FDA3E024
:100E7200FEA3E0FFBCB022BD041FBE001CBF0019D0
:100E820075E200C2AF75890090C3501226EE90C37E
:100E9200501226EE12380080FE227E007F003000C3
:100EA200200EBE00010F900005C007C0061226EEFC
:100EB200D006D007C3EE9450EF94C340E175820090
:100EC20022758201227540009001F9E060037540AD
:100ED20001854082222000259001FAE0FF601E8FEA
:100EE200D553D4FCD200BF400F120E9CE58260089D
:100EF20075D50053D4FCD2009001FAE4F022AF82FF
:100F02009001F9E06041C007120E9CE582D00770A3
:100F120003F582229001FAE0FEBE400050207D00DF
:100F220074402EFEE43DFDEE2414F582ED3400F50E
:100F320083EFF09001FAE02401F075820122C007EC
:100F4200120ED7D00780BF75820022AFF0AE83E5C4
:100F5200829000E8F0EEA3F0EFA3F09001F9E070C8
:100F6200030210039000E6E0FEA3E0FFC3E49E74D8
:100F7200808FF063F08095F04003021003C007C039
:100F820006120E9CE582D006D0077003F5822290ED
:100F920000E8E0FBA3E0FCA3E0FDC3E49E74808FC5
:100FA200F063F08095F050BC9001FAE0FABA40008C
:100FB20050498A017A00744029F9E43AFAE9241482
:100FC200F9EA3400FA8B828C838DF0122AFAF8A3A4
:100FD200AB82AC839000E8EBF0ECA3F0EDA3F089D8
:100FE200828A83E8F09001FAE02401F01EBEFF013C
:100FF2001F9000E6EEF0EFA3F0809F120ED7020FD3
:1010020066758200229001F7E0F582229001F7E0F6
:101012007003F582229001F8E02414F582E4340092
:10102200F583E0FF9001F8E004F09001F7E014F09E
:10103200E0700353D4F38F822275D50074FC55D42B
:101042004402F5D4C2002230DE199001F7E5DBF04C
:101052009001F8E4F09001F7E0600874F355D4448D
:0410620008F5D42297
:1010660075D70074FC55D64402F5D69001FBE4F022
:10107600227E007F009001FBE060200EBE00010F83
:10108600900005C007C0061226EED006D007C3EEB4
:101096009450EF94C340DE758200227F00BF0800A3
:1010A60050278F057E0074402DFDE43EFEED24A002
:1010B600FDEE3400FEEF24FCF582E43401F583E016
:1010C600FC8D828E83F00F80D475D7089001FB7457
:1010D60001F053D6FC75820122E5829000ECF0E027
:1010E6009001FCF09001FDE4F09000EBE09001FE31
:1010F600F09001FFE4F0900200F0900201F09002FF
:1011060002F0900203F0021077E5829000EDF09075
:1011160001FEE0FF9000EDE0FEEFB506030211923E
:101126009001FFE0FFB506028062900200E0FFB585
:1011360006028058900201E0FFB50602804E90023A
:1011460002E0FFB506028044900203E0FFB5060206
:10115600803A9000EE7402F07F02EF24FCFDE43446
:1011660001FE8D828E83E0700C9000EDE0FC8D8296
:101176008E83F0800B0F9000EEEFF0BF080040DA90
:101186009000EEE0FFBF080475820022121077750A
:10119600820122E5829000EFF0E0FF7E02EF60160A
:1011A600EE24FCFCE43401FD8C828D83E0B5070659
:1011B6008C828D83E4F00EBE080040E11210777534
:1011C600820122E5829000F0F0E0FFBF8800400B2C
:1011D6008F06EE24789000F0F0804EBF8000402607
:1011E6009001FCE0FE8F05ED2480F5F005F074011A
:1011F600800225E0D5F0FBFD42069001FCEEF09062
:1012060000F0E4F08023EF902E9E939000F0F0E043
:10121600FF7003F58222EF30E70F9001FCE04402F5
:10122600FEF09000F0747F5FF09000F0E0F582022F
:10123600110FE5829000F1F0E0FFF582C007121170
:101246000FAE82D0078F82C006121199D0068E8209
:1012560022E5829000F2F0E0FFBF8800400B8F0687
:10126600EE24789000F2F0804FBF80004027900176
:10127600FCE0FE8F05ED2480F5F005F07401800298
:1012860025E0D5F0FBF4FD52069001FCEEF090004F
:10129600F2E4F08023EF902E9E939000F2F0E0FFB0
:1012A6007003F58222EF30E70F9001FCE054FDFE5B
:1012B600F09000F2747F5FF09000F2E0F582021188
:1012C600997F00BF0800500FEF24FCF582E434013B
:1012D600F583E4F00F80EC021077E5829000F3F0DE
:1012E600E0FFF582C0071211C9AE82D0078F82C017
:1012F60006121257D0068E8222AFF0AE83E5829098
:1013060000F4F0EEA3F0EFA3F09000F4E0FDA3E00C
:10131600FEA3E0FF8D828E838FF0122AFAFC6023F3
:101326000DBD00010E9000F4EDF0EEA3F0EFA3F07A
:101336008C82C007C006C0051212E0D005D006D0C8
:101346000780D19000F4EDF0EEA3F0EFA3F0229029
:0613560000A0E0F5822278
:10135C00AFDBBF08028003021750900007E0FE7F4E
:10136C0000900006E0FD7C004FF517EC4EF5187F61
:10137C0000900001E0F519900000E0FE546060530D
:10138C00900000E0FE5306607D00BE2005BD00020B
:10139C00800BBE4039BD00367FFF0217527420B55A
:1013AC0019030217527421B5190280077422B5195A
:1013BC0018800C120E30AD82AE838D07021752C00E
:1013CC0007120E5BD0070217527FFF0217527FFFE6
:1013DC00021752E51924F4500302174CE519240B9B
:1013EC0083F582E519241083F583E4732E5C4C1C81
:1013FC004C26104C3350525217151716171514173C
:10140C0015151717900003E0FEBE01028012BE02F4
:10141C00028018BE0302801DBE220280750214B623
:10142C00751A1E751B2F7F120214B8751A30751B96
:10143C002F7F5F8077900002E07008751AD2751BC1
:10144C002F8044900002E0FEBE0108751A08751B3F
:10145C00308034900002E0FEBE0208751AE0751B65
:10146C002F8024900002E0FEBE0308751AD6751B6F
:10147C002F8014900002E0FEBE0408751AF6751B4E
:10148C002F80047FFF8025851A82851B83E493FFC0
:10149C00801A900002E0700E751A8F751B2F902F1A
:1014AC0086E493FF80067FFF80027FFFBFFF03026D
:1014BC0017528F057E00C3ED9517EE951850048DCD
:1014CC00178E18AD17AE18C3ED9408EE9400920267
:1014DC0040067B087C008004AB17AC188B077C00A3
:1014EC00C3EC9F50198C027B00EC251AF582E43575
:1014FC001BF583E493F98A828B83F00C80E28F03D3
:10150C007C00EDC39BFDEE9CFE8D178E18EF251A0B
:10151C00F51AE4351BF51B021752900002E0FE8E03
:10152C00177518000217529000F7E0900000F0AD0C
:10153C0017AE18C3ED9401EE940050030217527FBE
:10154C0001021752900002E0FE9000F7F0021752D1
:10155C00900000E0541F702F900003E0FD7E00907F
:10156C000002E0FC7B004206EB4205BE0114BD000C
:10157C0011902F37E493FE30E5030217527FFF02E0
:10158C0017527FFF021752900000E0FE53061F7D9A
:10159C0000BE0277BD0074900004E0FEBE01028024
:1015AC005FBE02028049BE03028033BE0402801D6E
:1015BC00BE81028040BE8202802ABE83028014BE9D
:1015CC00844474BC55DE4402F5DE02175253DE73BC
:1015DC0002175274BC55D64402F5D602175253D694
:1015EC007302175274BC55D44402F5D402175253EB
:1015FC00D47302175274BC55D24402F5D20217525E
:10160C0053D2730217527FFF0217527FFF021752F9
:10161C00900000E0541F702F900003E0FD7E0090BE
:10162C000002E0FC7B004206EB4205BE0114BD004B
:10163C0011902F37E493FE30E5030217527FFF021F
:10164C0017527FFF021752900000E0FE53061F7DD9
:10165C0000BE0205BD0002800302172A900003E0C1
:10166C00FD7E00900002E0FC7B004206EB4205EEA2
:10167C004D6003021726900005E0FD7E00900004EB
:10168C00E0FC7B004206EB4205BE0106BD000302F6
:10169C00171ABE0205BD00028060BE0305BD000224
:1016AC008044BE0405BD00028028BE8105BD000239
:1016BC008052BE8205BD00028036BE8305BD00028D
:1016CC00801ABE8451BD004E74BF55DE4403F5DE56
:1016DC008074747F55DE440CF5DE806A74BF55D679
:1016EC004403F5D68060747F55D6440CF5D68056ED
:1016FC0074BF55D44403F5D4804C747F55D4440C3A
:10170C00F5D4804274BF55D24403F5D28038747F2F
:10171C0055D2440CF5D27FFF802C7FFF80287FFFB1
:10172C008024900000E4F0900001F0AD17AE18C3D7
:10173C00ED9402EE940040047F02800AAF178006FD
:10174C007FFF80027FFFBFFF077519FF75DCCF227B
:10175C00EF24F740068FDD75DCC02275DD0075DCEB
:10176C00C0227405B51902805D7406B51966AE17F2
:10177C00AF18C3EE9408EF9400920340067C087DEA
:10178C00008004AC17AD187D00C3ED9C50198D0280
:10179C007B00ED251AF582E4351BF583E493F98A79
:1017AC00828B83F00D80E28C037D00EEC39BFEEFF9
:1017BC009DFF8E178F18EC251AF51AE4351BF51BB7
:1017CC008CDD63DC4022E5E35480FFE5174FF5E345
:1017DC0075DC022275DD0075DC02227420B5190D52
:1017EC0030DE10120DF075DD0085DCDC2275DD00BD
:1017FC0043DC022275D30074FC55D24402F5D2228C
:10180C0020D9030218BDE5D9540FFFADD9530530CB
:10181C007E00BD0005BE0002801CBD1005BE00028E
:10182C008037BD2005BE00028044BD3006BE0003DB
:10183C000218A30218BBEF24FB50030218BBEF2FB6
:10184C009018507380088067800A8063806112173B
:10185C00E70218BB1210498056EF24FB4051EF2FC2
:10186C009018707380498047804580438041EF24F5
:10187C00FB403CEF2F901885738008800B800E8006
:10188C0011802C12176E8027121800802212103B28
:10189C00801D1210668018EF24FB4013EF2F901858
:1018AC00AE738008800980078005800312135CC228
:1018BC00D930D81A75DC0275D21275D41275E300C2
:1018CC00C2DAC2D9C2D89000F7E4F0120DE810DAEF
:1018DC000122E5DA20E20375D8FF2275E20053E21B
:1018EC007F43E22975E30053E2BF53D1FB75D180EE
:1018FC0043D1012243E10443E10243E10143D81FF8
:10190C00D2EAD2AF227E007F008EEC8FED7E0A7F72
:10191C00008EEE8FEF7E147F008EE48FE57EA07F2D
:10192C00008EE68FE775EB0C43EB4043EB8075D2F2
:10193C001275D41275D61275EA4075DC0222E5C315
:10194C005407FFFE1EC2D575F002EE30E704B2D587
:10195C00F404A430D50AF42401C5F0F43400C5F025
:10196C0024F8F582740035F0F583ADC4AEC5EDF006
:10197C00EEA3F00F90011EEFF0EF24F9500690014A
:10198C001E7401F090011EE04410F5C3900204E0B7
:10199C0004F022E58290011FF0E0FF900205F0EFC9
:1019AC0030E0065393FE5392FEEF30E1065393FD65
:1019BC005392FDEF30E2065393EF5392EFEF30E387
:1019CC00065393DF5392DFEF30E4065393BF5392E9
:1019DC00BFEF30E50653937F53927F900117740548
:1019EC00F09001187402F0900119740AF090011A29
:1019FC0003F090011B7464F090011C7450F07E4A4B
:101A0C007F1990020AEEF0EFA3F07F00BF060050A2
:101A1C00288F06EE044410F5C3E5C330E7FBEF75E1
:101A2C00F002A42404F582740135F0F583ADC4AE44
:101A3C00C5EDF0EEA3F00F80D375C311D2E922905F
:101A4C000206E0FF900204E0C39FFFFEC374808E89
:101A5C00F063F08095F04003021D46754100AC41E7
:101A6C007D00EFFA3395E0FBC3EC9AED64808BF0CC
:101A7C0063F08095F04003021D46900207E0FDFCE8
:101A8C008CF005F07401800225E0D5F0FBFC900190
:101A9C0020F0900205E05C7003021D08A2AFE43355
:101AAC00FCC2AFED75F002A424F8F582740035F099
:101ABC00F583E0FBA3E0FD900121EBF0EDA3F0EC4E
:101ACC006002D2AFC007900207E075F002A42404B4
:101ADC00FC740135F0FD8C828D83E0FAA3E0FB9061
:101AEC000121E0F8A3E0F9E8C39AFAE99BFB900125
:101AFC0023EAF0EBA3F0900209E0F540900208E035
:101B0C00FFB540028005D007021CA18A428B43908E
:101B1C000117E0F540AE407F00C3E5429EE543640B
:101B2C00808FF063F08095F0D007502AC007AE404C
:101B3C007F00C3E49EFEE49FFFC3EE9AEF64808BAC
:101B4C00F063F08095F0D007500C8C828D83E8F018
:101B5C00E9A3F0021CA1900123E0FDA3E0FEC3E485
:101B6C009D74808EF063F08095F04003021C0E9003
:101B7C000116E0FE900120E0FD5E606C900207E033
:101B8C00FC2410F582E43401F583E0FB0B90012575
:101B9C00EBF0900119E0FAC3EB9A4034C0079001C6
:101BAC0025E4F0EC75F002A42404FB740135F0FC80
:101BBC008B828C83E0F9A3E0FA900118E0F87F00A7
:101BCC0029F9EF3AFA8B828C83E9F0EAA3F0D0077B
:101BDC00900207E02410FCE43401FB900125E0FAAC
:101BEC008C828B83F0021CA1900116ED4EF09002BA
:101BFC0007E0FE2410F582E43401F5837401F00251
:101C0C001CA1900116E0FE900120E0FD5E706D902D
:101C1C000207E0FC2410F582E43401F583E0FB0BB1
:101C2C00900125EBF0900119E0FAC3EB9A4036C015
:101C3C0007900125E4F0EC75F002A42404FB740178
:101C4C0035F0FC8B828C83E0F9A3E0FA900118E06C
:101C5C00F87F00E9C398F9EA9FFA8B828C83E9F04C
:101C6C00EAA3F0D007900207E02410FCE43401FB57
:101C7C00900125E0FA8C828B83F08019EDF4FD90B5
:101C8C0001165EF0900207E0FE2410F582E43401A8
:101C9C00F5837401F090011DE0FE900120E0FD5EE3
:101CAC00602F900123E0FBA3E0FCC3E49BFBE49CCE
:101CBC00FC90011CE0F97A00C3EB99EC64808AF08B
:101CCC0063F08095F05035EDF4FC90011D5EF080D2
:101CDC002B900123E0FBA3E0FCC3E49BFBE49CFC06
:101CEC0090011BE0F97A00C3E99BEA64808CF063F5
:101CFC00F08095F0500690011DED4EF0900206E03C
:101D0C002401F0900207E02401F0E0FEBE06004042
:101D1C0024900207E4F0900209E0FE900208E0FD36
:101D2C00EEB5050A90011AE0FE9002092DF0900222
:101D3C0008E02401F00541021A6A900208E0F582DD
:101D4C002290011DE0F58222E582900126F0E090C0
:101D5C000117F022E582900127F0E0900118F022A3
:101D6C00E582900128F0E0900119F022E5829001C3
:101D7C0029F0E090011AF022E58290012AF0E0901F
:101D8C00011BF022E58290012BF0E090011CF02267
:0C1D9C0090020AE4F0A3F0F5C3C2E922B3
:101DA800AE82AF8390012CE0FBA3E0FCA3E0FD7AB8
:101DB8000090012FE0F9890019E8603F8B828C833D
:101DC8008DF0122AFAF8A3AB82AC83C007C006C014
:101DD80005C004C003C002C001121DE68007C0068A
:101DE800C007888222A882D001D002D003D004D0B4
:101DF80005D006D007E860030A80BB8A8222AE823B
:101E0800AF83900130E0FBA3E0FCA3E0FD9001303C
:101E1800E0F5F0A3E045F07003F582227A008B82AA
:101E28008C838DF0122AFAF9A3AB82AC83E9F860AF
:101E38002CC007C006C005C004C003C002121E4A59
:101E48008007C006C007888222A982D002D003D0AA
:101E580004D005D006D007E960030A80C18A82222F
:101E6800AE82AF83900133E0FAA3E0FBA3E0FCA3CA
:101E7800E0FD90013BEAF0EBA3F0ECA3F0EDA3F05A
:101E880090013F740AF08E828F83021EF9AE82AFF2
:101E980083900137E0FAA3E0FBA3E0FCA3E0FD9008
:101EA8000161EAF0EBA3F0ECA3F0EDA3F09001657B
:101EB800740AF08E828F83021FE2AE82AF83C0075E
:101EC800C006121ECF8008C006C00775820D22AD5D
:101ED80082D006D007C007C005121EE68008C006DB
:101EE800C00775820A22AE82D005D007EE2DF58292
:101EF80022858222858323900160E4F090013FE0EF
:101F0800FDBD0200500690013F740AF090013FE0C9
:101F1800F5247B607C0190013BE0F525A3E0F526E4
:101F2800A3E0F527A3E0F528852429752A00752B59
:101F380000752C00C004C003C029C02AC02BC02CC7
:101F48008525828526838527F0E528122800A88222
:101F5800E58124FCF581C000C029C02AC02BC02C13
:101F68008525828526838527F0E5281228C2AA823E
:101F7800AD83AEF0FFE58124FCF581D000D003D01D
:101F88000490013BEAF0EDA3F0EEA3F0EFA3F01B01
:101F9800BBFF011C8B068C07B80A00500888057423
:101FA800302DFD8004743728FD8E828F83EDF090EC
:101FB800013BE0F5F0A3E042F0A3E042F0A3E045E6
:101FC800F06003021F1E900130EBF0ECA3F0E4A3D5
:101FD800F0852282852383021E0685822D85832E25
:101FE800900165E0FD701B900161E0F9A3E0FAA3A0
:101FF800E0FBA3E0FC1220028007C02DC02E8982DE
:102008002222BD0A0280030220AF900161E0F9A3F9
:10201800E0FAA3E0FBA3E0FC30E76FC004C003C014
:1020280002C0011220308008C02DC02E75822D22DA
:10203800A882D001D002D003D004882F900161C3B8
:10204800E499F0E49AA3F0E49BA3F0E49CA3F09055
:102058000161E0F530A3E0F531A3E0F532A3E0F546
:102068003390013BE530F0E531A3F0E532A3F0E52C
:1020780033A3F090013F740AF0852D82852E8312D8
:102088001EF9AF82E52F2FF5822290013BE9F0EA95
:10209800A3F0EBA3F0ECA3F090013F740AF0852DB8
:1020A80082852E83021EF9900161E0FBA3E0FCA368
:1020B800E0FEA3E0FF90013BEBF0ECA3F0EEA3F011
:1020C800EFA3F090013FEDF0852D82852E83021E4F
:0120D800F90E
:1020DA001223A3BC0003022991EF60FA30D502B2A1
:1020EA00D1E583B4FF030229A7E582B4FF030229DD
:1020FA00A7258340072482400B0229912483145088
:10210A00030229A7F582EA8DF0A4A8F0EA8EF0A4CA
:10211A0028F8E435F0F9EB8DF0A428E935F0F9E474
:10212A0033CA8FF0A429F9EA35F0FAEBF88EF0A455
:10213A0029F9EA35F0FAE433FBEC8DF0A429F9EA3F
:10214A0035F0FAE43BFBE88FF0A42AFAEB35F0FB12
:10215A00E433CCFD8EF0A42AFAEB35F0FBE43CFC28
:10216A00ED8FF0A42BFBEC35F0FC20E7031223D112
:03217A00022970C7
:10217D00C021C0E0C0F0C082C083C007C006C0054A
:10218D00C004C003C002C001C000C0D075D0001291
:10219D00180CD0D0D000D001D002D003D004D0057F
:1021AD00D006D007D083D082D0F0D0E0D02132C07D
:1021BD0021C0E0C0F0C082C083C007C006C005C00A
:1021CD0004C003C002C001C000C0D075D00030985B
:1021DD0005122B29C298309905122B69C299D0D0BE
:1021ED00D000D001D002D003D004D005D006D00746
:1021FD00D083D082D0F0D0E0D02132C021C0E0C059
:10220D00F0C082C083C007C006C005C004C003C0B3
:10221D0002C001C000C0D075D00030C005122BCA5D
:10222D00C2C030C105122C0AC2C1D0D0D000D0011D
:10223D00D002D003D004D005D006D007D083D082F1
:10224D00D0F0D0E0D02132C021C0E0C0F0C082C0BB
:10225D0083C007C006C005C004C003C002C001C0D2
:10226D0000C0D075D00090020CE0FEA3E0FFC007C7
:10227D00C0068E828F83120069D006D007D0D0D0D1
:10228D0000D001D002D003D004D005D006D007D0A5
:10229D0083D082D0F0D0E0D02132C021C0E0C0F098
:1022AD00C082C083C007C006C005C004C003C00201
:1022BD00C001C000C0D075D00090020EE0FEA3E0BA
:1022CD00FFC007C0068E828F83120069D006D0072B
:1022DD00D0D0D000D001D002D003D004D005D0068C
:1022ED00D007D083D082D0F0D0E0D02132C021C031
:1022FD00E0C0F0C082C083C007C006C005C004C0E6
:10230D0003C002C001C000C0D075D00090020AE029
:10231D00FEA3E04E600E90020AE0F8A3E0F583887C
:10232D0082120069D0D0D000D001D002D003D004E9
:10233D00D005D006D007D083D082D0F0D0E0D02108
:10234D003212272912036612037280FB7582002256
:10235D00AF82BF800040012275A15575A1AA43B17E
:10236D000475A1007585C0EF2FF584900166E0F529
:10237D008EE58630E60375869A75A15575A1AA532B
:10238D00B1FB75A10022AF827585C0EF2FF5847565
:10239D00868E858E8222AA82AB83A2F73392D1F5E7
:1023AD00826002D2F7ACF0E58124F9F8E6FD08E68B
:1023BD00FE0886F008E6A2F73392D5F5836002D2C7
:0423CD00F7AFF02254
:1023D1007804EC7011E58224F8500AF582E4C9CA48
:1023E100CBFCD8EF22EC7820058220E713D58201BF
:1023F10022C3E933F9EA33FAEB33FBEC33FCD8EAD5
:10240100158222E582FF90307093FEEF9030489361
:10241100FF700122900167E0FD701BBF0209EEF41D
:10242100FC5292EC529322BF0402800122EEF4FC92
:102431005296EC529722BD0214BF0207EE4292EE71
:10244100429322BF0439EE4296EE429722BD011615
:10245100BF0208EEF45292EE429322BF0421EEF441
:102461005296EE429722BD0316BF0208EE4292EE4B
:10247100F4529322BF0408EE4296EEF4FE529722E4
:10248100AF82BF0102800FBF02028013BF0302802F
:1024910017BF0425801BE5C620E21E539DFB22E5E4
:1024A100C620E315539DF722E5C630E20C539DFB90
:1024B10022E5C630E303539DF722E582FF903020E9
:1024C10093FEEF90307093FDEF90304893FF7003CF
:1024D100F58222EE600D8E82C007C005122481D0E4
:1024E10005D0077E00BF0202800ABF03028009BF38
:1024F100040C8008AE908006AEA08002AEB0ED5E06
:1025010060047582012275820022E582FF903020ED
:1025110093FEEF90307093FDEF90304893FFEE60A3
:102521000D8E82C007C005122481D005D007A2AF4D
:10253100E433FEC2AFBF0202800ABF03028017BFAD
:1025410004368024900168E07007EDF4FF5290801A
:1025510027ED42908022900168E07007EDF4FF5270
:10256100A08015ED42A08010900168E07007EDF4A5
:0E257100FF52B08003ED42B0EE6002D2AF2206
:10258000C0D075D00808B8000D09B900090ABA0012
:10259000050BBB00010CD0D032A2AFC2AFA808A976
:1025A00009AA0AAB0BAC8A8588F092AF30F5127499
:1025B000012C600D08B8000909B900050ABA00012C
:1025C0000BC3EC9406FCECC313FC75F07DE8A4F897
:1025D000ADF075F07DE9A42DF9E435F0FD75F07DE1
:1025E000EAA42DFAE435F0FD75F07DEBA42DFB7D1A
:1025F00000EC28F582E93DF583EA3DF5F0EB3D225C
:10260000A2AFC2AFA808A909AA0AAB0BAC0C92AF43
:1026100075F020E8A4A8F075F020E9A428F582A8B8
:10262000F075F020EAA428F583A8F075F020EBA45B
:1026300028F9A8F075F020ECA42889F022858234CE
:1026400085833585F036F53712259985823885835F
:102650003985F03AF53BE534453545364537700167
:1026600022A834A935AA36AB3785383C85393D8553
:102670003A3E853B3FE8494A4B60DBC003C002C09D
:1026800001C000122599AC82AD83AEF0FFD000D01E
:1026900001D002D003ECC3953CFCED953DFDEE95D9
:1026A0003EFEEF953FFFC3EC94E8ED9403EE9400FB
:1026B000EF940040A118B8FF0919B9FF051ABAFF35
:1026C000011B883489358A368B3774E8253CF53C04
:1026D0007403353DF53DE4353EF53EE4353FF53FC9
:1026E000853C38853D39853E3A853F3B8087AE82C3
:1026F000AF83C374019EE49F40022200C374029E14
:10270000FE74009FFF00BE0005BF00020022000013
:102710000000000000000000000000000000000EAB
:10272000BE00EB0FBF00ED002275A15575A1AA7484
:10273000F855B94406F5B975A1009013881226EE34
:10274000759E5D759D0074F055894402F58953C9E5
:0D275000EF758C06C28DD2A9D28CD2AF22BB
:10275E00C01C85811CC082C083E5812405F581AF34
:10276E001C0FE51C2403F8A607087600087640E542
:10277E001C24FCFD7E007F40E51C2406F9A81C08E5
:10278E008604E51C24FCF886038CF0EBA4F709A75D
:10279E00F0E51C240604F98704A81C0886037401BE
:1027AE002DFAE43EFE8A828E838FF0122AFA8BF087
:1027BE00A4FBE51C2403F8740126FDE40836FE088C
:1027CE0086078D828E838FF0122AFAFDE51C24FC7B
:1027DE00F886078DF0EFA42B2CF7E51C2406F9875D
:0F27EE00060987078E828F83851C81D01C2232BB
:0127FE0032A8
:10280000C01C85811CAC82AD83AEF0FF05817B00CE
:10281000A81C087600E51C24FAF8080808E62354EA
:1028200001FA704CE51C24FAF8E626F608E633F6C1
:1028300008E633F608E633F6E51C24FAF8C3EC960E
:10284000ED0896EE0896EF0896501AE51C24FAF863
:10285000080808E6C313F618E613F618E613F61888
:10286000E613F6800BA81C0806A81C08860380A5A2
:10287000E51C24FAF8C3EC96ED0896EE0896EF08EE
:10288000964015E51C24FAF8ECC396FCED0896FD7D
:10289000EE0896FEEF0896FFE51C24FAF8080808F3
:1028A000E6C313F618E613F618E613F618E613F661
:1028B0008B021BEA70BA8C828D838EF0EF1581D06B
:1028C0001C22C01C85811CC082C083C0F0C0E07A7D
:1028D000007B007E007F007D20A81C08080808E619
:1028E000235401FCA81C08E626F608E633F608E6A1
:1028F00033F608E633F6EA2AFAEB33FBEE33FEEF63
:1029000033FFEC6003430201E51C24FAF8C3EA96A6
:10291000EB0896EE0896EF0896401CE51C24FAF8A2
:10292000EAC396FAEB0896FBEE0896FEEF0896FFD0
:10293000A81C08E64401F6DDA0A81C0886820886CB
:10294000830886F008E6851C81D01C22ABF0A2AF7C
:10295000E433FEC2AFE0A37A0833D2B44002C2B47B
:102960007905D9FEC2B4DAF1DBEBEE6002D2AF2218
:10297000B98003EA13B34010EA2401FAE43BFBE414
:102980003CFC50047C800582BC000EBB000BBA00EE
:1029900008E4F5F0F583F58222A2D1E582138CF0EC
:1029A00092F78B838A8222E4F583F58275F080F4B6
:1029B000A2D11322E4F583F58275F0C0747F222240
:1029C000AF82BF0200503EEF75F002A4240CFD74EC
:1029D0000235F0FE900169E0FBA3E0FC8D828E835E
:1029E000EBF0ECA3F0BF00028005BF0118800B9054
:1029F000016BE024FF9288D2A82290016BE0FF24B3
:102A0000FF928AD2AA22AF82BF02005028BF0002E2
:102A10008005BF01088004C2A88002C2AAEF75F039
:102A200002A4240CFE740235F0FF8E828F8374BFE3
:062A3000F07429A3F0225E
:102A37001223A330D502B2D1BF0009BC000302297B
:102A4700B40229A7BC0003022991E583B4FF0BE573
:102A570082B4FF030229B4022991E582B4FF03027D
:102A670029A7C395835007247F400B02299124800F
:102A77001450030229A7F582C3ED9AEE9BEF9C4001
:102A8700111582C3EA33F9EB33FAEC33FBE433FC79
:102A97008005E4CCCBCAF9C08275F019C3E99DEA79
:102AA7009EEB9FEC9400D5F002802D400EE99DF936
:102AB700EA9EFAEB9FFBEC9400FCC3B3E833F8E51E
:102AC7008233F582E58333F583C3E933F9EA33FAD1
:102AD700EB33FBEC33FC80C4B3E4F938FAE435821A
:102AE700FBE43583FCD082500405827C801223D11D
:032AF70002298829
:102AFA0020F71430F6148883A88220F507E6A88305
:102B0A0075830022E280F7E49322E022E4AC82FBA0
:0F2B1A00FAF97486022BC07F86122D20F58222D5
:102B2900900210E0FF7E000FBF00010E7410C0E09C
:102B3900E4C0E08F828E83122D45AE821581158106
:102B4900900211E0FFEEB5070122900210E0246C1B
:102B5900F582E43401F583E599F0900210EEF02254
:102B690030044A900212E0FF900213E0FEEFB5062E
:102B790005A204C20422900213E0247CF582E43405
:102B890001F583E0F599900213E0FF7E000FBF0085
:102B9900010E7410C0E0E4C0E08F828E83122D45CF
:0E2BA900AE82AF8315811581900213EEF022EB
:102BB700FCABF0AA83A982749EC2D1F5821223D1FD
:032BC70002297070
:102BCA00900214E0FF7E000FBF00010E7410C0E0F7
:102BDA00E4C0E08F828E83122D45AE821581158165
:102BEA00900215E0FFEEB5070122900214E0248C52
:102BFA00F582E43401F583E5C1F0900214EEF02287
:102C0A0030054A900216E0FF900217E0FEEFB50683
:102C1A0005A205C20522900217E0249CF582E4343D
:102C2A0001F583E0F5C1900217E0FF7E000FBF00B7
:102C3A00010E7410C0E0E4C0E08F828E83122D452D
:0E2C4A00AE82AF8315811581900217EEF02245
:102C5800C01C85811CAE82E583FF33E433FD600927
:102C6800C3E49EFBE49FFC80048E038F04E51C24D0
:102C7800FCF808E633E433FF600FE51C24FCF8C3D6
:102C8800E496FA08E496FE800AE51C24FCF886021D
:102C9800088606C007C005C002C0068B828C831256
:102CA8002CCEAC82AE8315811581D005D007EF6D8F
:102CB800600DC3E49CFDE49EFF8D828F8380048CAD
:102CC800828E83D01C22C01C85811CAE82AF837C7F
:102CD800007D007B10EF235401FAEE2EFEEF33FF48
:102CE800EC2CFCED33FDEA6003430401E51C24FCF5
:102CF800F8C3EC96ED08964010E51C24FCF8ECC3EC
:102D080096FCED0896FD430601DBCA8E828F83D0C0
:102D18001C22758200227F9E122E7530D103022953
:102D280091C3EF9582500974FFF5F0F583F582227F
:102D38007900122E3289828A838BF0EC22C01C859E
:102D4800811CAE82E583FF33E433FD6009C3E49E52
:102D5800FBE49FFC80048E038F04E51C24FCF80828
:102D6800E630E70FE51C24FCF8C3E496FE08E49679
:102D7800FF800AE51C24FCF88606088607C005C003
:102D880006C0078B828C83122DB3AE82AF83158168
:102D98001581D005ED600DC3E49EFCE49FFD8C8297
:102DA8008D8380048E828F83D01C22C01C85811C59
:102DB800AE82AF837D007C00E51C24FCF808E62386
:102DC8005401FB702FE51C24FCF8E626F608E633D0
:102DD800F6E51C24FCF8C3EE96EF08965011E51CA6
:102DE80024FCF808E618C313C613C608F680050CB9
:102DF8008C0580C4E51C24FCF8C3EE96EF089640C9
:102E08000DE51C24FCF8EEC396FEEF0896FFE51CC2
:102E180024FCF808E618C313C613C608F68D041D6B
:102E2800EC70D18E828F83D01C226040F8258250AE
:102E38000274FFF582E824F8501ECCCBCAF9E4CC22
:102E480024F85014CBCAF9E4CB24F8500BCAF9E49F
:102E5800CA24F8500379002224086010F8C3EC1340
:102E6800FCEB13FBEA13FAE913F9D8F122AA82ABB7
:0F2E780083A2F73392D1F5826002D2F7ACF02239
:102E870063756265746F7563682E6E6F74656F6CBA
:072E97007669642E657300EB
:102E9E0000000000000000002A2B280000000000A7
:102EAE000000000000000000000000000000000014
:102EBE002C9EB4A0A1A2A434A6A7A5AE362D373859
:102ECE00271E1F20212223242526B333B62EB7B862
:102EDE009F8485868788898A8B8C8D8E8F90919220
:102EEE00939495969798999A9B9C9D2F3130A3AD6C
:102EFE00350405060708090A0B0C0D0E0F101112EA
:102F0E00131415161718191A1B1C1DAFB1B0B500E6
:102F1E0012011001EF0201080912BEC601010102E1
:102F2E00030109025F000301008064080B00020226
:102F3E00020104090400000102020104052400102C
:102F4E00010424020205240600010705810308007E
:102F5E004009040100020A000004070502024000B5
:102F6E00000705820240000009040200010301016E
:102F7E0000092110012101224300070583030800E7
:102F8E000A05010906A101050719E029E715002523
:102F9E0001950875018102950175088103950675E5
:102FAE0008150025FF0507190029E78100050819F6
:102FBE0001290515002501950575019102950175EB
:102FCE00039103C0040309040A03430054003000B4
:102FDE0031001603430075006200650020005400A6
:102FEE006F00750063006800120343004400430045
:102FFE002000430075006200650018034E006F004C
:10300E00740065006F006C00760069006400650056
:02301E0073003D
:10302000000000000000000000000000000000019F
:103030000000000000000000000000000000030489
:103040000000020000000000010101010101010176
:103050000000020202020202020200000303030354
:103060000303030300000404040404040404000034
:103070000102040810204080000001020408102012
:10308000408000000102040810204080000001027E
:103090000408102040800000FFFFFFFFFFFFFFFF3C
:1030A000FFFFFF00FFFF0102FFFFFFFFFFFFFFFF2A
:1030B000FFFFFFFFFFFFFFFF03FFFFFFFFFFFFFF1C
:0130C000000F
:0230C1004E239C
:0530C300000000000AFE
:1030C8000000000000FF4209D308F80800000000D3
:1030D800FF004209D308F808000000FF0000420979
:1030E800D308F808000000FFFFFF4209D308F808DA
:0C30F8000000008000804209E008F80899
:0B31040000E1000000000800000000D7
:09310F00000000000000000000B7
:06311800000000000000B1
:02311E000000AF
:04312000BF29BF29DB
:0431240000000000A7
:0431280000000000A3
:00000001FF
